:020000040800F2
:10000000180600209D010008EF220008ED200008DE
:10001000ED220008D3080008EB28000800000000CB
:10002000000000000000000000000000F3220008B3
:100030006909000800000000F1220008F52200080C
:10004000B7010008B7010008B7010008B7010008B0
:10005000B7010008B7010008B7010008B7010008A0
:10006000B7010008B7010008B7010008B701000890
:10007000B7010008D5080008B7010008E10800082A
:10008000B7010008B7010008B7010008B701000870
:10009000B7010008B7010008B7010008B701000860
:1000A000B7010008B7010008B7010008B701000850
:1000B000AD230008B9230008B7010008B701000804
:1000C000B7010008B7010008B7010008B701000830
:1000D000B7010008B7010008B7010008B701000820
:1000E000B7010008B7010008B7010008B701000810
:1000F000B7010008B7010008B7010008B701000800
:10010000B7010008B7010008B7010008B7010008EF
:100110002D260008B7010008B7010008B701000844
:10012000B7010008B7010008B7010008B7010008CF
:10013000B7010008B7010008B7010008B7010008BF
:10014000B7010008B7010008B7010008B7010008AF
:10015000B7010008B7010008B7010008B70100089F
:10016000B7010008B7010008B7010008B70100088F
:10017000B7010008B7010008B7010008000000003F
:10018000B7010008B7010008DFF80CD000F00EFB43
:10019000004800473D2B000818060020064880470D
:1001A00006480047FEE7FEE7FEE7FEE7FEE7FEE75C
:1001B000FEE7FEE7FEE7FEE791230008890100085D
:1001C0002DE9F05F0546002092469B46884606468C
:1001D000814640241BE0284641464746224600F01F
:1001E000E2F853465A46C01A914110D311461846B8
:1001F000224600F0C9F82D1A67EB01084F46224647
:100200000120002100F0C0F817EB00094E41201E2C
:10021000A4F10104DFDC484631462A464346BDE8E6
:10022000F09FD2B201E000F8012B491EFBD27047CB
:100230000022F6E710B513460A4604461946FFF7B2
:10024000F0FF204610BD2DE9FE4F81EA030404F0C3
:10025000004421F0004100944FF0000B23F00043D4
:1002600050EA01045ED052EA03045BD0C3F30A549F
:10027000C1F30A552C44A4F2F3340194A0FB0254B8
:10028000C1F3130141F48011C3F3130343F480134A
:1002900001FB024400FB034E840A970A44EA81549E
:1002A00047EA8357A4FB076802958D0A05FB07857B
:1002B0004FEA932C04FB0C542705029D4FEA065885
:1002C00047EA1637B5EB08056EEB070C870E920E62
:1002D00047EA811742EA8312A7FB0201B6EB0B0142
:1002E00064EB00042B0D43EA0C335E1844EB1C5006
:1002F000DA465146E7FB0201C5F313044FEA0B331C
:1003000043EA14534FEA0432019C43EA0603A4F182
:100310000C040294009CCDE900B400F09AF803B0FC
:10032000BDE8F08F00200146F9E700F0004230F010
:1003300000400AD0C10D01F56071C0F3160042EA19
:100340000151C20840071143704700200146704721
:1003500001F0004330B421F0004150EA010206D020
:100360000A0DA2F56072C1F31301002A02DC30BC51
:1003700000207047440F44EAC104C100E01830BCBB
:1003800000EBC25000F01FB8202A04DB203A00FA2C
:1003900002F1002070479140C2F1200320FA03F3DC
:1003A000194390407047202A04DB203A21FA02F0DA
:1003B0000021704721FA02F3D040C2F1200291409F
:1003C0000843194670470029A8BF7047401C4900E0
:1003D00008BF20F00100704710B4B0FA80FC00FAAA
:1003E0000CF050EA010404BF10BC704749B1CCF1D5
:1003F000200421FA04F411FA0CF118BF0121214361
:100400000843A3EB0C01CB1D4FEA00614FEA10201B
:1004100042BF002010BC704700EBC35010440029BD
:10042000A4BF10BC7047401C490008BF20F0010069
:1004300010BC704710B5141E73F1000408DA401C9C
:1004400041F1000192185B411A4301D120F00100F3
:1004500010BD2DE9F04D92469B4611B1B1FA81F2E3
:1004600002E0B0FA80F220329046FFF78DFF04469A
:100470000F4640EA0A0041EA0B0153465A46084338
:1004800013D0114653EA010019D0C8F1400250467A
:10049000FFF789FF05460E46504659464246FFF78C
:1004A00073FF084305D0012004E020463946BDE82B
:1004B000F08D0020054346EAE0762C4337430A9846
:1004C0006305E40AA0EB08000022FD0A44EA475451
:1004D0000A3002D500200146E9E7010510196941FB
:1004E000DDE9084500196941BDE8F04DA2E72DE9B5
:1004F000FE4F804681EA0300C00F0C46009021F0B9
:10050000004123F00045B8EB0200A94105D2404666
:10051000214690461C460B46024623F000401043FD
:1005200047D0270DC7F30A00C3F30A510290401ABF
:10053000019040286BDAC3F3130040F4801B00984D
:10054000924620B10023D2EB030A63EB0B0B019818
:100550005946C0F140025046FFF716FF06460D46C9
:1005600050465946019A00F033F910EB08006141FA
:10057000002487EA115284EAE7731A4340D0009AB4
:1005800062B3019A012A4FEA075215DC001B61EBA6
:1005900002014FF0004202EA0752CDE90042001C7E
:1005A00041F5801132462B46FFF753FF03B0BDE8FB
:1005B000F08F40462146F9E7001B61EB0201001C69
:1005C00041F5801300185B412018A2F5001747EB96
:1005D000030140EAD570B6196D4111E06D084FEA8C
:1005E000360645EAC0754FEA0752001B61EB02016F
:1005F000001C41F5801149084FEA300000195141B3
:1006000032462B4603B0BDE8F04FFFF713BF00980A
:10061000012240000023D0EB020263EBE07300985C
:1006200021464FEAE074B8EB000061EB0401E9E712
:1006300083F000435BE781F0004158E72DE9F0418A
:10064000054621F000400C46284309D0C4F30A5067
:1006500040F23341884205DD28462146BDE8F0815D
:100660002846FBE740F2FE31884210DC0CDB4FEA03
:10067000043040EA155050EA053105D0104804F026
:10068000004101430020E9E700200146E6E7A0F22F
:1006900033404642C6F1400228462146FFF774FE29
:1006A00007468846284621463246FFF77CFE4346E9
:1006B0003A46FFF7BFFE3246BDE8F041FFF764BEA1
:1006C0000000F03F2DE9FE4FC3F30A5701F000454B
:1006D0000024C1F30A56C3F31303C1F3130143F417
:1006E000801312EB020AA64641F48011009543EBF9
:1006F000030CA7F1010B16E0B0EB0A0061EB0C0153
:10070000071E71F1000707DA4FF00008D0EB080070
:1007100085F0004568EB0101171A73EB0107EBD375
:10072000761E001849415E45F6DA50EA010209D00A
:10073000CDE900E5002213460296FFF78AFE03B0DA
:10074000BDE8F08F20460099F9E7000030B5041E9F
:1007500071F1000404DB4FF00044404264EB0101FE
:10076000141E73F1000405DB1C464FF00043524297
:1007700063EB04038B4208BF824230BD30B5041ED8
:1007800071F1000404DB4FF00044404264EB0101CE
:10079000141E73F1000405DB1C464FF00043524267
:1007A00063EB0403994208BF904230BD064C074DED
:1007B00006E0E06840F0010394E807009847103431
:1007C000AC42F6D3FFF7E4FC38300008583000089C
:1007D000202A06DBCB17203A41FA02F043EAE07305
:1007E00006E041FA02F3D040C2F1200291400843F2
:1007F000194670472DE9F04D81EA030404F0004BDF
:1008000021F0004514464FF0000A23F0004150EA61
:10081000050220D054EA01021DD0C5F30A57024652
:10082000C5F31303C1F31300C1F30A5640F4801556
:1008300043F48013A7EB0608101BD64608F2FD38D8
:1008400073EB050002D308F1010801E092185B4147
:10085000B8F1000F03DA00200146BDE8F08D00205A
:100860004FF48011064684460EE0171B73EB050714
:1008700005D3121B63EB050306434CEA010C490840
:100880004FEA300092185B4150EA0107EDD152EA7D
:10089000030012D082EA040083EA0501084305D070
:1008A000101BAB4106D20122002306E000224FF0CC
:1008B000004302E06FF0010253101AEB06004CEB0C
:1008C000085110EB0A0041EB0B01BDE8F04DFFF7BA
:1008D000B1BDFEE7014800F05DB80000B4010020A2
:1008E000014800F057B800005401002001681823A7
:1008F000CAB2103AB2FBF3F2054B6FF30901032AB7
:100900009B5CC36500D9091D8165084670470000DE
:100910001830000810B5014600208B698A6A4FF034
:10092000C07453B1B3F5005F15D072B1012A0CD079
:10093000022A0AD0032A09D104E01AB1012A06D0FA
:10094000022A03D1C96AC90100D5012010BDC96AB4
:10095000A142FAD010BD002AF7D0012AF2D0022A13
:10096000F3D0032AF3D010BD704772B6FEE790F8BB
:100970003510022903D080214165012070470521EF
:1009800080F835100068016821F001010160002045
:10099000704700002DE9F84304464FF00009CDF8F8
:1009A000009063484FF41651A56D0068B0FBF1F755
:1009B0002E6894F85C10082000FA01F131420FD043
:1009C00021680A6852070BD50A6822F004020A60FF
:1009D00094F85C108840A860606D40F0010060658C
:1009E00094F85C104FF0010808FA01F0304208D08A
:1009F00021684969090604D5A860606D40F00200CD
:100A0000606594F85C1004208840304208D021686A
:100A10000968890704D5A860606D40F0040060652E
:100A200094F85C1010208840304218D02168096882
:100A3000090714D5A86020680168490304D5006837
:100A4000000308D5A16C07E00168C90503D401685B
:100A500021F008010160216C09B12046884794F813
:100A60005C1020208840304231D021680968C906D6
:100A70002DD5A86094F8350005282068016806D0B7
:100A8000490347D5006800031DD4616C1CE021F0C8
:100A9000160101602068416921F080014161206CEC
:100AA00008B9A06C20B12068016821F0080101603C
:100AB00094F85C103F208840A86084F8349084F853
:100AC0003580216D1FE0E16B09B120468847606DDC
:100AD00000282BD0606DC00714D0052084F83500A5
:100AE0002068016821F0010101600098401C00901D
:100AF000B84203D820680068C007F6D184F8349063
:100B000084F83580E16C002910D001B02046BDE8A2
:100B1000F04308470168C905D5D4016821F01001E8
:100B2000016084F8349084F83580CCE7BDE8F88320
:100B30008C0000202DE9F041044600F053F90646F0
:100B40005CB1002584F83450022084F83500206818
:100B5000016821F0010101600DE00120BDE8F08194
:100B600000F040F9801B052805D92020606503208E
:100B700084F83500F2E720680068C007F0D12268E9
:100B8000116820480140D4E901031843D4E9033631
:100B90003343184363691843A3691843E36918434F
:100BA000236A18430843616A042903D1D4E90B136B
:100BB00019430843106020684069666A20F0070105
:100BC00030460E43012704280CD1A06A0643E06A90
:100BD00040B12046FFF79EFE20B14020606584F8BA
:100BE0003570BAE7206846612046FFF77FFE94F82B
:100BF0005C203F2191408160656584F8357000205C
:100C0000ACE700003F8010F070B5044600F0EAF851
:100C10000546601C02D004480078044400F0E2F865
:100C2000401BA042FAD370BD800000202DE9F84F90
:100C300000224FF0010803254FF00F0E0B6808FA51
:100C400002F42340A3426ED14E68012E05D0022E3D
:100C500003D0112E01D0122E12D186684FEA420C19
:100C600005FA0CF7BE43CF6807FA0CF737438760E5
:100C70004668A6430C79C4F300149440344344609E
:100C8000C668570005FA07FC8C6826EA0C06BC40CB
:100C90003443C4604C68022C01D0122C13D1D40808
:100CA00000EB8404A346D4F8209054074FEAD46A9A
:100CB0000EFA0AF629EA06090E6906FA0AF646EA63
:100CC0000906CBF8206006680C7926EA0C0604F0C9
:100CD0000304BC40344304604C68E40065D5364CE2
:100CE000266846F480462660246822F0030604F451
:100CF00080440094314C3444A446D4F80848960704
:100D0000370F0EFA07F6B4432D4EB04201D100263C
:100D100024E02C4EB04201D101261FE02A4EB04201
:100D200002D102261AE040E0284EB04201D103264B
:100D300014E0274EB04201D104260FE0254EB04208
:100D400001D105260AE0244EB04201D1062605E075
:100D5000224EB04201D1072600E00826BE402643BD
:100D6000CCF808681E4E34684F689C43FF0300D5DA
:100D70001C4334601A4C241D26684F689E43BF03F1
:100D800000D51E432660164E083634684F689C43D3
:100D9000FF0200D51C433460114E0C3634684F6896
:100DA0009C43BF0200D51C433460521C102AFFF440
:100DB00045AFBDE8F88F00004438024000300140E4
:100DC000000002400004024000080240000C024003
:100DD000001002400014024000180240001C0240B3
:100DE000003C0140014880687047000080000020FE
:100DF00002488168027811448160704780000020B9
:100E00000B4810B5016841F400710160016841F4BC
:100E100080610160016841F480710160032000F08D
:100E20006FF8002000F006F800F024F8002010BD54
:100E3000003C024070B50D4D04464FF47A7128789D
:100E4000B1FBF0F00A490968B1FBF0F000F002FBD9
:100E500048B9102C07D200222146501E00F030F86D
:100E600000206C6070BD012070BD0000800000207B
:100E70008C0000200A4808B5016841F480410160F7
:100E8000006800F4804000900548001F016841F0B0
:100E900080510160006800F08050009008BD0000A3
:100EA00044380240002809DB00F01F020121914074
:100EB0004009800000F1E020C0F8001170470000F8
:100EC000F0B40E4B1B680C46C3F30223C3F10705B5
:100ED000042D00D90425191D072901D2002300E0A3
:100EE000DB1E012606FA05F1491E214099409E406D
:100EF000761E16403143F0BC01F0F8BC0CED00E06A
:100F0000064900F0070208684FF6FF03184040EA60
:100F10000220034A10430860704700000CED00E017
:100F20000000FA052DE9F0470E46050065D0DFF810
:100F30001481D8F80000F7B200F00F00B04207D2D9
:100F400088F80070D8F8000000F00F00B04254D1CB
:100F500028683D4C810712D5400703D5206840F42E
:100F6000E05020602878000703D5206840F46040F6
:100F700020602068A96820F0F000084320602878ED
:100F8000C0072DD0304968680839012812D00228DE
:100F900013D0032811D00968890700292DDA2168A8
:100FA00021F0030101432160FFF71CFF814641F25C
:100FB000883A0EE009688903EFE709688901ECE7E0
:100FC000FFF710FFA0EB0901514502D90320BDE84E
:100FD000F0872068696800F00C00B0EB810FEFD15A
:100FE000D8F80010404601F00F01B14207D9077050
:100FF000006800F00F00B04201D00120E7E7287838
:10100000400705D52068E96820F4E05008432060D7
:101010002878000706D52068296920F4604040EA56
:10102000C100206000F038F82168084AC1F30311BC
:10103000515CC8400649086006480068FFF7FAFEA0
:101040000020C4E7003C024008380240203000087D
:101050008C000020840000200448054900680968CD
:10106000044AC1F38221515CC84070478C000020C3
:101070000838024030300008044805490068096813
:10108000044AC1F34231515CC84070478C000020D3
:101090000838024030300008154810B5006810F0DC
:1010A0000C02144813D04110042A0FD0082A0ED184
:1010B0000F4C241F2268236802F03F025B0207D511
:1010C0002068C0F38810A0FB010106E0084610BDAF
:1010D0002168C1F38811A1FB00010023FFF770F81C
:1010E0002168C1F30141491C4900B0FBF1F010BD7A
:1010F000083802400024F4002DE9F84F04006ED0B7
:101100002078DFF83C93C007A9F104054AD009F123
:1011100004000168C1F38101012908D00068C0F30F
:10112000810002280AD1D9F80000400206D52868BB
:10113000800337D560680028E1D033E06068B0F5FF
:10114000803F10D0B0F5A02F286810D020F4803058
:101150002860286820F4802028606068A8B1FFF724
:1011600041FE06460DE0286840F48030F4E740F484
:1011700080202860F7E700BFFFF734FE801B64285B
:1011800073D828688003F7D50CE0FFF72BFE0646DE
:1011900005E000BFFFF726FE801B6428F0D8286812
:1011A0008003F7D42078DFF89C8280074FF0000A94
:1011B0003ED5A348001D016811F00C0F08D000684F
:1011C000C0F3810002280BD1D9F80000400207D4F7
:1011D0002868800716D5E068012800D112E02BE1CD
:1011E000E068B8B10120C8F80000FFF7FBFD064633
:1011F00005E000BFFFF7F6FD801B0228C0D8286875
:101200008007F7D52868216920F0F80040EAC1007E
:1012100028600DE0C8F800A0FFF7E4FD064604E0F2
:10122000FFF7E0FD801B02281FD828688007F7D44D
:101230002078000722D5824E83486169703671B1EB
:1012400001210160FFF7CEFD074604E0FFF7CAFD6C
:10125000C01B022809D830688007F7D50EE0C0F817
:1012600000A0FFF7BFFD074605E082E0FFF7BAFDEB
:10127000C01B02287DD830688007F7D4207840074B
:1012800068D5DFF8BCB100270BF13C0BDBF80000A0
:10129000C0000BD4DBF8001041F08051CBF80010F7
:1012A000DBF80000012700F080500090674E3068A6
:1012B000C00510D4306840F480703060FFF792FDB4
:1012C000009005E0FFF78EFD0099401A022850D8E3
:1012D0003068C005F6D55A4EA0686C3601280FD08C
:1012E0000528306810D020F001003060306820F010
:1012F00004003060A068B8B1FFF774FD00900FE003
:10130000306840F00100F4E740F004003060F7E797
:10131000FFF768FD0099411A41F28830814266D892
:1013200030688007F4D50EE0FFF75CFD009007E021
:10133000FFF758FD0099411A41F28830814256D892
:1013400030688007F4D42FB1DBF8001021F0805111
:10135000CBF80010A069C8B33949091D0968C1F369
:10136000810102294AD00228504607D0C8F86000FF
:1013700000E03CE0FFF736FD04463BE04746C8F896
:101380006000FFF72FFD064605E000BFFFF72AFDCE
:10139000801B02282BD828688001F7D4D4E90701E4
:1013A0000843A16A2A4A490802EB0141626A41EAFC
:1013B0008211084394F82C1040EA0161C9F800102A
:1013C00001203866FFF70EFD044606E036E000BF58
:1013D000FFF708FD001B022809D828688001F7D50F
:1013E0002CE000BFFFF7FEFC001B022802D90320FF
:1013F000BDE8F88F28688001F4D41FE00128F7D0F9
:10140000D9F80000E26900F48001914214D1226A07
:1014100000F03F0191420FD147F6C071626A01406E
:10142000914209D1A26A00F44031914204D1E16AAB
:1014300000F07060884201D00120D9E70020D7E792
:101440000438024000004742800E474200700040CE
:101450000000FFFF10B5401EB0F1807F01D30120D6
:1014600010BD4FF0E02460610F21601701F03EFADB
:101470000020A06107202061002010BD7047704748
:1014800070B590F83C20012A32D0012480F83C400D
:10149000022280F83D2003685A689D6822F0700699
:1014A0000A6832435A60134B02689A4214D0B2F170
:1014B000804F11D0104B9A420ED0104B9A420BD055
:1014C0000F4B9A4208D00F4B9A4205D00E4B9A42CE
:1014D00002D00E4B9A4204D1496825F0800319438B
:1014E000916080F83D40002180F83C10084670BDB6
:1014F000022070BD000001400004004000080040D0
:10150000000C004000040140004001400018004071
:101510002DE9F0410D46040003D094F83D0018B1C8
:1015200008E00120BDE8F081002084F83C0020465E
:1015300000F03AF8022084F83D002068816844F207
:10154000070291438160211D206800F03BFF226863
:1015500090689169166A2B68AF69034340F20330C3
:10156000814341EA0721A868EF6908434FF6FC412F
:101570008843E96840EA0720014328692F6A00018F
:1015800040EA0730084369686D6926F0AA0646EA12
:10159000051529439360226890612068016201204B
:1015A00084F83D000020BDE710B586B00446142144
:1015B0006846FEF73DFE16492068884226D1154848
:1015C0000021026842F002020260006800F002009E
:1015D000059010481038026842F00102026000686D
:1015E00000F001000590C02000900220CDE901012B
:1015F000CDE9031069460848FFF718FB00221146A1
:101600001D20FFF75DFC1D20FFF74CFC06B010BD50
:1016100000040040403802400000024010B504467B
:10162000006891B1042904D00122002100F02EFFAE
:10163000206801225FF0040100F028FF20680168A3
:1016400041F001010160002010BD01220021F3E7FB
:1016500010B546482DED048B00680068444CC0F37B
:101660000010E06310B16088401E02E010B960888D
:10167000401C6080B4F902003D49F1EE0C0A0028DC
:1016800091ED010A9FED3B8A9FED3B9B20EE200AE6
:10169000B4F9020029DA404200EE900AF8EEE00ABE
:1016A000C4ED040A20EE881AC1EE000AC4ED050A52
:1016B00010EE900AFEF739FE41EC100BB0EE491A1D
:1016C000F0EE691A01F022F951EC100BFEF740FE22
:1016D00000EE100AF2EE040A38EE400A20EE200A6C
:1016E00010EE100AFEF721FE23E000283ADDB4F9DF
:1016F000020000EE900AF8EEE00AC4ED040A20EEC3
:10170000881AC1EE000AC4ED050A10EE900AFEF731
:101710000CFE41EC100BB0EE491AF0EE691A01F024
:10172000F5F89FED171B51EC100B53EC112BFEF746
:101730008AFD41EC100B01F06BF951EC100BFEF738
:1017400007FE00EE100A0A4984ED050ABCEEC00A45
:10175000BDEC048B783110EE100ABDE8104080B269
:1017600000F0DDBCBDEC048B10BD0000D4000020F7
:10177000000000200000B44300000000008076401C
:10178000000000000000244010B50268044631B19A
:10179000042908D008291AD00C2908D11BE0D068E8
:1017A00040F0020002E0D06840F00400D060012266
:1017B000206800F06BFE2068816801F007010629AF
:1017C00003D0016841F001010160002010BDD06824
:1017D00040F00800EAE7D06840F01000E6E770B596
:1017E0000446006801694FF00005C943890715D414
:1017F000C168C943890711D4E91E0161012020771E
:10180000206880698007204602D0FFF721FF04E0AE
:1018100000F0C0F8204600F05DF9257720680169E6
:10182000C943490717D4C168C943490713D46FF0A6
:1018300004010161022020772068806910F4407F54
:10184000204602D0FFF704FF04E000F0A3F8204692
:1018500000F040F9257720680169C943090716D4CB
:10186000C168C943090712D46FF00801016104205F
:1018700020772068C0698007204602D0FFF7E8FE85
:1018800004E000F087F8204600F024F9257720686E
:101890000169C943C90617D4C168C943C90613D42D
:1018A0006FF010010161082020772068C06910F4F2
:1018B000407F204602D0FFF7CBFE04E000F06AF83C
:1018C000204600F007F9257720680169C943C90758
:1018D00008D1C168C943C90704D1891E01612046E6
:1018E00000F09AF920680169C943090609D4C16862
:1018F000C943090605D46FF0800101612046FFF756
:10190000BDFD20680169C943490609D4C168C943BE
:10191000490605D46FF040010161204600F07DF9D1
:1019200020680169C94389060BD4C168C943890687
:1019300007D46FF0200101612046BDE87040FFF739
:101940009EBD70BD10B586B0044614216846FEF7F2
:101950006FFC2068B0F1804F15D10C48002102685F
:1019600042F001020260006800F0010005902E20A4
:1019700000900220CDE901010120CDE90310694664
:101980000348FFF753F906B010BD0000303802409D
:1019900000000240704770B5044690F83C000D46C8
:1019A00001280DD0012684F83C60022084F83D0017
:1019B00042B1042A18D0082A2AD00C2A4DD139E085
:1019C000022070BD206800F06FFD2068816941F041
:1019D000080181612068816921F00401816120682A
:1019E00081692A69114311E0206800F08DFD2068AB
:1019F000816941F4006181612068816921F480611D
:101A00008161206881692A6941EA0221816124E0BB
:101A1000206800F0AFFD2068C16941F00801C16194
:101A20002068C16921F00401C1612068C1692A6987
:101A3000114311E0206800F0D1FD2068C16941F434
:101A40000061C1612068C16921F48061C1612068C1
:101A5000C1692A6941EA0221C16184F83D60002020
:101A600084F83C0070BD10B5040003D094F83D002C
:101A700010B107E0012010BD002084F83C00204692
:101A800000F00CF8022084F83D00211D206800F0D1
:101A900099FC012084F83D00002010BD08B50068C5
:101AA000B0F1804F12D10A48016841F00101016094
:101AB0000068002200F00100009011461C20FFF792
:101AC000FFF9BDE808401C20FFF7ECB908BD000095
:101AD000403802407047000010B5044600680122FB
:101AE00000F0D4FC0B492068884202D00A498842A1
:101AF00003D1416C41F4004141642068816801F0E8
:101B00000701062903D0016841F0010101600020AE
:101B100010BD0000000001400004014010B5026843
:101B2000044631B1042908D0082925D00C2908D150
:101B300026E0D06840F0020002E0D06840F00400E7
:101B4000D0600122206800F0A1FC0F492068884283
:101B500002D00E49884203D1416C41F400414164F6
:101B60002068816801F00701062903D0016841F06F
:101B700001010160002010BDD06840F00800DFE7DF
:101B8000D06840F01000DBE7000001400004014095
:101B900010B50268044631B1042908D008292FD0B5
:101BA0000C2908D130E0D06820F0020002E0D068B3
:101BB00020F00400D0600022206800F067FC144888
:101BC00041F2111321689A10814202D011488142DA
:101BD00009D1086A184206D1086A104203D1486C3C
:101BE00020F4004048642068016A194206D1016A65
:101BF000114203D1016821F001010160002010BDF4
:101C0000D06820F00800D5E7D06820F01000D1E7B8
:101C10000000014000040140704770477047000019
:101C200070B5026804461068D168536910F00F0F50
:101C300052D003F0010501F490762E435FD0C20725
:101C400005D0CA0503D5E26B42F00102E263420708
:101C500005D5DA0703D0E26B42F00202E2638207A5
:101C600005D5DA0703D0E26B42F00402E263020713
:101C700007D501F020022A4303D0E26B42F00802AC
:101C8000E263E26B002A33D0800604D5880602D5D1
:101C9000204600F0E7FC20684069E16BC0F380104B
:101CA000090700D428B3204600F0CEFC2068416923
:101CB00049061AD5416921F040014161606BA0B12C
:101CC0001B490165606BFEF752FE002810D0606B67
:101CD000016DBDE870400847830610D58B060ED510
:101CE0002046BDE8704000F0BDBC2046FFF796FFDF
:101CF00070BD2046FFF792FF0020E06370BD030631
:101D000006D50B0604D52046BDE8704000F08ABD1C
:101D10004006F3D54806F1D5D168204621F04001B0
:101D2000D160202184F8391000F0DFF970BD000087
:101D30003926000870B5040004D094F83900002555
:101D400010B106E0012070BD84F83850204600F044
:101D500023F8242084F839002068C16821F4005158
:101D6000C160204600F0CAFC2068016921F490415E
:101D700001612068416921F02A0141612068C16840
:101D800041F40051C160E563202084F8390084F8F3
:101D90003A00002070BD00002DE9F04387B00646F0
:101DA00014216846FEF744FA3849306888426AD1FF
:101DB00037480024016841F400210160006800F404
:101DC0000020059032481038016841F0010101609F
:101DD000016801F001010591016841F00401016011
:101DE000006801250227CDE9005700F004004FF0FC
:101DF00008094FF00308CDE90490CDE9025869467F
:101E00002448FEF713FFE802CDE9000702AA69465D
:101E100082E820032048FEF709FF214D1F48BF0636
:101E2000E5E8020740204FF48068A5E811011C484E
:101E300045F81449AC61EC612C626C62FEF77AFEE5
:101E400008B1FEF792FD3563AE631448154D303886
:101E50002860C5E90174C5E9034880156C61C5E9CE
:101E600006402C6228466C62FEF764FE08B1FEF75D
:101E70007CFD7563002211463420AE63FFF720F825
:101E80003420FFF70FF807B0BDE8F083004C0040A6
:101E900040380240000002400008024070600240EA
:101EA00054010020B401002090F83A30202B22D1B8
:101EB000F9B1F2B190F83830012B1CD081628285E3
:101EC000C2850021C163222280F83A2080F83810B0
:101ED0000168CA6842F48072CA6001684A6942F0C7
:101EE00001024A610068C16841F02001C160002020
:101EF000704701207047022070470000F0B400686E
:101F0000434988427ED1434A4349A2F164000223F7
:101F1000C5680C680021565D722E04D06D1CC5602A
:101F2000052D0FD067E0C160616241809FED3B0AE3
:101F300080ED090AC0E91231117051709170D170B1
:101F4000117158E0C160616241801479702C52D1E6
:101F500083645378D478303B03EBC30505EB03135C
:101F600004EB830394782E4D04EB840405EB4404C6
:101F7000234400EE103AB8EEC00A80ED090A137847
:101F80002D2B03D1B1EE400A80ED090AB5EEC00A4F
:101F9000F1EE10FA03D19FED230A80ED090A10EE4D
:101FA000103A214D4FF4B474AB420CDBBDEEC00AC5
:101FB00010EE103A93FBF4F504FB153300EE103AE3
:101FC000B8EEC00A14E010EE103A184DAB4211D32F
:101FD000B1EE400ABDEEC00A10EE103A93FBF4F5E4
:101FE00004FB153300EE103AB8EEC00AB1EE400A19
:101FF00080ED090AC164C068F0BC111806480122CE
:10200000403000E001E0FFF74FBFF0BC7047000038
:10201000004C004064000020D400002000000000BC
:10202000F0FDFFFFCDCCCC3D0000B4430000B4C3B5
:102030002DE9F843044690F839001F4616460D4630
:10204000202850D1B5B1AEB194F8380001284AD05B
:10205000012084F838004FF00008C4F83C802120AB
:1020600084F83900FEF7BEFEA6848146E68484F833
:10207000388026E00120BDE8F883E08C401EE08433
:10208000A0684B46B0F5805F4FF000024FF0800132
:102090002046009703D000F0F6FBE8B90DE000F011
:1020A000F2FBC8B928882168C0F30800486020699D
:1020B00008B16D1C05E0AD1C03E0216815F8010BAB
:1020C0004860E08C0028D8D14B46002240212046B1
:1020D000009700F0D8FB08B10320CCE7202084F85B
:1020E00039000020C7E70220C5E77047FEE76522F8
:1020F0000A710A22B0FBF2F302FB1303B0FBF2F009
:102100003033CB702E238B70B0FBF2F302FB130342
:10211000B0FBF2F030334B703030087070477022F3
:102120004A710A22B0FBF2F302FB1303B0FBF2F098
:1021300030330B712E23CB70B0FBF2F302FB130391
:10214000B0FBF2F030338B70B0FBF2F302FB130301
:10215000B0FBF2F030334B70B0FBF2F302FB130034
:1021600030300870704761220A710A22B0FBF2F326
:1021700002FB1303B0FBF2F03033CB70B0FBF2F391
:1021800002FB1303B0FBF2F030338B70B0FBF2F3C1
:1021900002FB1303B0FBF2F030334B7030300870A9
:1021A000704762220A710A22B0FBF2F302FB1303AA
:1021B000B0FBF2F03033CB70B0FBF2F302FB130351
:1021C000B0FBF2F030338B70B0FBF2F302FB130381
:1021D000B0FBF2F030334B703030087070470000C5
:1021E00010B58AB0002407941C2168460894FEF7B5
:1021F0001FF822484FF0804101605421C0E90114CA
:1022000040F2E731C0E903148461FFF72CFC08B108
:1022100072B6FEE7079407A918480894FFF730F94B
:1022200008B172B6FEE7602000906420CDE9010499
:102230000022694611480494FFF7ADFB08B172B65D
:10224000FEE7042269460D48FFF7A5FB08B172B608
:10225000FEE7082269460948FFF79DFB08B172B600
:10226000FEE70C2269460548FFF795FB08B172B6F8
:10227000FEE70248FFF766FB0AB010BD940000209D
:1022800010B58CB024216846FDF7D2FF0024164813
:10229000099414490A94C0E900144FF6FF71C0E98B
:1022A0000241046184610320CDE900040120CDE9ED
:1022B00002040494CDE90540079469460A4808944D
:1022C000FFF726F908B172B6FEE7099409A9064896
:1022D0000A94FFF7D5F8002801D072B6FEE70CB0DB
:1022E00010BD000000040040D4000020FEE7FEE71F
:1022F00070477047FEF77CBD30B593B0302168461B
:10230000FDF796FF14210CA8FDF792FF1E4800254B
:10231000016841F080510160006800F08050119028
:102320001A48016841F4804101600068022400F409
:102330008040119001200090000401908001CDE9BF
:102340000640082008904FF4A870CDE90904042045
:102350000B906846FEF7D0FE08B172B6FEE70CA9F6
:102360000F2081E831004FF4A0500F904FF48050BF
:10237000109005210CA8FEF7D5FD002801D072B6FB
:10238000FEE713B030BD000040380240007000404E
:102390000548016841F47001016003494FF0006095
:1023A000803908607047000088ED00E00148FFF7C1
:1023B00016BA0000940000200148FFF710BA000090
:1023C000D4000020F0B50268254C264D264E274F3C
:1023D000274B4FF0804CA04209D0604507D0A8425F
:1023E00005D0B04203D0B84201D0984204D122F0C7
:1023F000700E4A6842EA0E02A0421BD0604519D016
:10240000A84217D0B04215D0B84213D0984211D08C
:10241000184DA8420ED0184DA8420BD0174DA84217
:1024200008D0174DA84205D0164DA84202D0164D2F
:10243000A84203D122F44075CA682A434D6922F0AC
:1024400080022A4302608A68C2620A688262A042ED
:1024500001D0984201D10969016301214161F0BDB8
:10246000000001400004004000080040000C004053
:102470000004014000400140004401400048014088
:1024800000180040001C00400020004010B501F082
:102490001F030121046A99408C430462016A9A4037
:1024A0001143016210BD0000F0B5026A22F0010282
:1024B0000262036A42688469124E24F073050C6854
:1024C0002C4323F002058B682B430D4DA84201D00D
:1024D000B04205D123F00807CB683B4323F0040347
:1024E000A84201D0B04205D14D6922F44072154393
:1024F0008A692A4342608461496841630362F0BD8E
:102500000000014000040140F0B5026A22F0100210
:102510000262026A436884690D6824F4E64444EA6E
:1025200005248D6822F0200242EA05120F4D104E5C
:10253000A84201D0B04206D1CF6822F0800242EA20
:10254000071222F04002A84201D0B04207D14D69E3
:1025500023F4406343EA85038D6943EA85034360BE
:102560008461496881630262F0BD0000000001409F
:1025700000040140F0B5026A22F480720262026A2D
:102580004368C46922F4007224F073050C68124E8B
:102590002C438D6842EA05220E4DA84201D0B0427C
:1025A00006D1CF6822F4006242EA072222F4806258
:1025B000A84201D0B04207D14D6923F4405343EA09
:1025C00005138D6943EA05134360C4614968C1631B
:1025D0000262F0BD000001400004014030B5026A13
:1025E00022F480520262046A4268C3690D6823F4CF
:1025F000E64343EA05238D6824F4005444EA053495
:10260000084DA84202D0084DA84204D14D6922F4D9
:10261000804242EA85124260C361496801640462F3
:1026200030BD000000000140000401400148FFF7F8
:10263000F7BA00001401002010B5806B0021C1859D
:10264000C184FFF7EBFA10BD0168CA6822F49072EA
:10265000CA6001684A6922F001024A61202180F8BB
:102660003A10704710B590F83A10222901D0022094
:1026700010BD8168B1F5805F11D001690029016842
:102680001FD0496801F07F03816A4A1C82620B7087
:10269000C18D491E0904090CC18518D02BE00269BF
:1026A000816A002A0268526805D0D2B20A80816A23
:1026B000491C8162ECE7C2F308020A80816A891C26
:1026C000F7E74A68816A4B1C83620A70E0E7016899
:1026D000CA6822F02002CA600168CA6822F48072C7
:1026E000CA6001684A6922F001024A61202180F82B
:1026F0003A10FFF703FC002010BD00002DE9F04167
:10270000044600680169E26821F440511143016107
:102710002169A068E269084361691143084321689F
:10272000CA6849F20C639A430243CA60206841694F
:10273000A26921F4407111434161E06919276425C0
:102740003226B0F5004F354A354920684FF0000871
:1027500006D0884201D0904236D1FEF78DFC35E09C
:10276000884201D0904202D1FEF786FC01E0FEF7DC
:1027700073FC61684A18A0FB070148EB0803FDF7EA
:102780001FFD0146B0FBF5F00201B1FBF5F06FF063
:102790001803584301EB800006EBC000B0FBF5F0D6
:1027A00000F0F80002EB4002B1FBF5F0584301EBFA
:1027B000800006EBC000B0FBF5F000F007002168D8
:1027C00010448860BDE8F081FEF746FC61688B0F1D
:1027D0008A00A0FB0701FDF7F3FC0146B0FBF5F012
:1027E0006FF01802504301EB800006EB0010B0FBC5
:1027F000F5F000F0F002B1FBF5F002EB0012B1FBD6
:10280000F5F06FF01803584301EB800006EB001061
:10281000B0FBF5F000F00F00D1E70000001401401C
:102820000010014090F83910212901D00220704792
:102830008168B1F5805F016A0BD04A1C02620268B0
:1028400009785160C18C491E0904090CC1840ED05D
:1028500017E009880268C1F3080151600169002985
:10286000016A02D0491C0162ECE7891CFBE70168A0
:10287000CA6822F08002CA600068C16841F0400165
:10288000C160002070472DE9F041984617460E467A
:102890000446069D1DE0681C1BD02DB1FEF7A2FA70
:1028A000A0EB0800A84214D92068C16821F4D071B7
:1028B000C1602068416921F001014161202084F854
:1028C000390084F83A00002084F838000320BDE87D
:1028D000F0812068006836EA000004D00020B84289
:1028E000D9D00020F3E70120F9E7FEE70907090E38
:1028F000002804DB00F1E02080F80014704700F0AD
:102900000F0000F1E02080F8141D704710B52DED88
:10291000040B86B09DED060B10EE100A10EE901A17
:102920008DED000B002818BF0120084320F0004067
:10293000C0F17F6000F1E040C00F21D19DED080B98
:1029400010EE101A10EE900A8DED000B002918BF42
:102950000121084320F00040C0F17F6000F1E04019
:10296000C00F0DD129490798B1EB400F04BF06985D
:10297000002842D00998400004BF089800283CD0A5
:102980009DED080B53EC102B9DED060B51EC100B3D
:10299000FDF798FECDE902019DED020B40F2FF71BB
:1029A00010EE900A8DED000B31EA105021D00798FF
:1029B000039900F0004001F00041884219D09DEDDC
:1029C000080B8DED040B9DED020B8DED000B10EE51
:1029D000900A059961F31E0005909DED041B9DED85
:1029E000020B51EC110B53EC102BFDF724FECDE93B
:1029F00002019DED020B0AB010BD012000F098F815
:102A00000AB0BDE8104000F073B800000000E0FF1D
:102A100010B52DED020B2DED088B84B09DED0C0B48
:102A200051EC100BFDF70AFE41EC180B9DED0C0B61
:102A300053EC182B51EC100BFDF7FAFD41EC190B80
:102A40000D989FED290B10F0004F53EC102B51EC1B
:102A5000190B9FED21AB9FED22BB0ED0FDF776FE4B
:102A60000ED953EC1B2B51EC190BFDF787FE1CD232
:102A700014E000BF41EC180B17E0FDF767FE06D22B
:102A800053EC1A2B51EC180BFDF7D2FDF2E753EC87
:102A90001B2B51EC190BFDF771FE06D853EC1A2BCA
:102AA00051EC180BFDF723FDE4E78DED028B9DED56
:102AB0000C0B18EE901A10EE900A8DED000B61F3DE
:102AC0001E0003909DED020B04B0BDEC088B02B01C
:102AD00010BD000000000000000000000000F03FFA
:102AE000000000000000E03F000000000000E0BF28
:102AF0009FED050B10B553EC102B51EC100BFDF7AF
:102B000079FE41EC100B10BD000000000000000039
:102B100002E008C8121F08C1002AFAD170477047A6
:102B2000002001E001C1121F002AFBD17047000004
:102B30000149086070470000900000202DED048BD3
:102B400082B0FEF75DF9FFF7D7FBFF48002501686B
:102B500041F080010160016801F08001009101688D
:102B600041F001010160016801F00101009101687B
:102B700041F004010160016801F004010091016865
:102B800041F4001101600068002200F40010009080
:102B900011460D20FEF794F90D20FEF783F900226F
:102BA00011460F20FEF78CF90F20FEF77BF9FFF797
:102BB00017FBFFF765FBE648E44901604FF4E1319C
:102BC000C0E901150C21C560C0E904518561C561EA
:102BD000FFF7B0F808B172B6FEE7DD48042180388F
:102BE000FEF77AFFDA4808218038FEF775FFD848EB
:102BF0000C218038FEF770FFD54804218038FEF79D
:102C00008DFFD34808218038FEF788FFD0480C217B
:102C10008038FEF783FFCE4800214038FEF7FEFCE7
:102C2000CB4804214038FEF7F9FCC9480021403860
:102C3000FEF7AAFDC64804214038FEF7A5FDC548A9
:102C40000122A0F16404E1680144C148FFF72CF9B6
:102C5000C14EDFEDC29ADFF8F8824FF4967AA8F100
:102C600040089FEDBF8ADFF8FC92BF4FB3EE049A95
:102C7000A8F1400BF2EE048AD4ED050A80EEA80A12
:102C8000D4ED090A30EEC00A10EE100A84ED0A0AEB
:102C9000B04202DD30EE690A06E010EE100AB349D8
:102CA000884203D330EE290A84ED0A0AA06D20B1D0
:102CB0003221401EC4E9151001E00F206065E06D6F
:102CC000504502DD84ED149A0FE0C82802DDB2EE13
:102CD0000E0A08E0642802DDB1EE080A03E00028CD
:102CE00011DBB7EE000A84ED140A401EE0650AD13C
:102CF000A06AB0F17E5F02DC10F1814F03D9C820D9
:102D0000E0650320A06594ED101A94ED0A0AF8EE30
:102D1000C10AB8EEC12A60EE201AC1EE880AC4EDDD
:102D2000110AD4ED0D1A71EEA00AC4ED0D0AD4ED0E
:102D3000181A70EE611A61EE881A81EE821A84ED1B
:102D40000E1AD8F80000406A208010EE900A48451C
:102D500002DDDFED870A06E010EE900A8549884221
:102D600003D9DFED850AC4ED0D0AA06D10B184ED25
:102D70000C9A0FE0D4ED060AD4ED071A94ED0D2A53
:102D800060EE800A41EE820AD4ED081A41EE810A13
:102D9000C4ED0C0A206BB84202DDDFED780A04E0D6
:102DA0007749884203D9DFED770AC4ED0C0AD4EDE8
:102DB000140AB4EEE00AF1EE10FA29D2F1EE600A3C
:102DC000B4EEE00AF1EE10FA22DD61480421803809
:102DD000FEF7DEFE5E4808218038FEF7D9FE5C482B
:102DE0000C218038FEF7D4FEDBF800108D63DBF891
:102DF0000010CD63DBF8000005649FED630A02203C
:102E000084ED0C0A84ED0D0A84ED0E0AA0647EE0C8
:102E100094ED0C0AB5EEC00AF1EE10FA37DDA06CA5
:102E2000012810D04A4804218038FEF777FE484830
:102E300008218038FEF772FE45480C218038FEF7E5
:102E40006DFE0120A06494ED150AD4ED0C0ADBF8A8
:102E50000000B8EEC01A21EE201ABCEEC11A11EE25
:102E6000102A0264B8EEC01A21EE201ABCEEC11A74
:102E700011EE102AC263B8EEC00ADBF8001020EE93
:102E8000200ABCEEC00A10EE100A88633FE0B5EEDF
:102E9000C00AF1EE10FA3AD2A06C78B12C480C219D
:102EA0008038FEF73BFE2A4808218038FEF736FEC0
:102EB000274804218038FEF731FEA564606DDBF8F9
:102EC0000010404200EE100AF8EEC00A94ED0C0A21
:102ED00060EE800AFCEEE00A10EE903A0B6400EE21
:102EE000900AF8EEE00A60EE800AFCEEE00A10EECE
:102EF000903ACB6300EE900ADBF80000F8EEE00AAF
:102F000020EE800ABCEEC00A10EE101A816394ED28
:102F10000A0A84ED180A206CFDF776FEA068401CB2
:102F2000A06064287FF4A8AE94ED0A0A20EE280A77
:102F300010EE100AFDF7F9F941EC100BFFF768FDF0
:102F400051EC100B22E0000030380240004C0040F1
:102F50001401002064000020000034430000B4434A
:102F600000007A440000FA430000C842000034C365
:102F70000000FA430000FAC30000FAC30000C84290
:102F80000000C8C20000C8C200000000FDF7E0F960
:102F900000EE100A84ED0B0AB5EEC00AF1EE10FA4D
:102FA00003D2B1EE400A84ED0B0A6088184980B262
:102FB000FFF7D9F82088164980B20A31FFF7F1F8F7
:102FC00094ED0B0A1249BCEEC00A491D10EE100A1E
:102FD00080B2FFF78CF80E49642306220F310D48AA
:102FE000FFF726F86423052209490A48FFF720F86D
:102FF0000749642305220A310648FFF719F80449F6
:1030000064230522491D0348FFF712F8A56033E643
:10301000690000201401002000061016000610169A
:103020000000000000000000010203040607080978
:1030300000000000010203045830000800000020D6
:1030400094000000102B0008EC30000894000020D1
:1030500084050000202B0008000000000000C8428A
:103060000000000000000000000000000000000060
:10307000000040400AD7233CCDCCCC3D00000000EE
:103080000000000000000000000000000000000040
:10309000000000000200000002000000000000002C
:1030A000020000000000000000000000000000001E
:1030B000050000005E0100000000000000000000AC
:1030C0000000000000000000000000000000000000
:1030D00000000000000000000100000010000000DF
:0C30E000000000000024F40000000000CC
:040000050800018965
:00000001FF
